:020000000116E7
:0300030001F932CE
:03000B0001DE32E1
:100013002125327405F5B87487F5A8740590018C11
:0E0023007800793F7A0674007C007E007F0131
:10003100758901758810C280C281C282C283C2845F
:0F004100C285C286C287758CFC758A18D284E985
:10005000643F600E8A90D281C2818990D280C28032
:0F00600080ED8A90D281C2818990D280C280EADD
:10006F00643F600280DA8A90D281C2818990D28007
:0F007F00C280E9643F70C9EF6400600CEF640158
:10008E00601DEF64027F0060287487F5A8900194CC
:0F009E00EF047800FF793F7A06D284C286014FC3
:1000AD00900191EF04FF78007A3F794FD285C28499
:0F00BD00014F7483F5A890018D78007F007A3F82
:1000CC007907D286C285014F7C00758CFC758A1825
:1000DC00010D758CFC758A18EC04FCC28DEC640166
:0F00EC00AC00E9643F6022E89308F980DB74837D
:1000FB00F5A87E0075F0FF7A0690018F7800796D78
:0F010B00D286C284C2857F0001057A3F90018CA5
:10011A007800796F7400856F9080AFEE04FE6406F4
:0F012A006017EE64016033640260376403603B6A
:100139006404603F6405604301157F007487F5A876
:0F0149007E0075F0FF85F0A07A0690018F780098
:0F015800796DD284C285C2867F0180DD75F00F7C
:1001670085F0A080D575F00785F0A080CD75F003E8
:1001770085F0A080C575F00185F0A080BD75F00001
:0E01870085F0A080B57F077D6D664F5B063F5B
:00000001FF
